{
  "address": "0x65d3061a3d6d9040f4C46B7f39de92a6CA9BEa92",
  "abi": [
    {
      "inputs": [
        {
          "internalType": "address",
          "name": "actor",
          "type": "address"
        }
      ],
      "name": "InvalidActor",
      "type": "error"
    },
    {
      "inputs": [
        {
          "internalType": "address",
          "name": "witness",
          "type": "address"
        }
      ],
      "name": "InvalidWitness",
      "type": "error"
    },
    {
      "anonymous": false,
      "inputs": [
        {
          "components": [
            {
              "internalType": "uint256",
              "name": "id",
              "type": "uint256"
            },
            {
              "internalType": "enum ArgaLibrary.DeclarationStatus",
              "name": "status",
              "type": "uint8"
            },
            {
              "internalType": "string",
              "name": "summary",
              "type": "string"
            },
            {
              "internalType": "string",
              "name": "description",
              "type": "string"
            },
            {
              "internalType": "address",
              "name": "actor",
              "type": "address"
            },
            {
              "internalType": "address",
              "name": "witness",
              "type": "address"
            },
            {
              "internalType": "uint256",
              "name": "startDate",
              "type": "uint256"
            },
            {
              "internalType": "uint256",
              "name": "endDate",
              "type": "uint256"
            },
            {
              "internalType": "uint256",
              "name": "witnessByDate",
              "type": "uint256"
            },
            {
              "components": [
                {
                  "internalType": "uint256",
                  "name": "value",
                  "type": "uint256"
                },
                {
                  "internalType": "address",
                  "name": "erc20Address",
                  "type": "address"
                }
              ],
              "internalType": "struct ArgaLibrary.Collateral",
              "name": "collateral",
              "type": "tuple"
            },
            {
              "internalType": "string",
              "name": "proof",
              "type": "string"
            },
            {
              "internalType": "uint64",
              "name": "drawId",
              "type": "uint64"
            }
          ],
          "indexed": false,
          "internalType": "struct ArgaLibrary.Declaration",
          "name": "declaration",
          "type": "tuple"
        }
      ],
      "name": "DeclarationMade",
      "type": "event"
    },
    {
      "anonymous": false,
      "inputs": [
        {
          "components": [
            {
              "internalType": "uint256",
              "name": "id",
              "type": "uint256"
            },
            {
              "internalType": "enum ArgaLibrary.DeclarationStatus",
              "name": "status",
              "type": "uint8"
            },
            {
              "internalType": "string",
              "name": "summary",
              "type": "string"
            },
            {
              "internalType": "string",
              "name": "description",
              "type": "string"
            },
            {
              "internalType": "address",
              "name": "actor",
              "type": "address"
            },
            {
              "internalType": "address",
              "name": "witness",
              "type": "address"
            },
            {
              "internalType": "uint256",
              "name": "startDate",
              "type": "uint256"
            },
            {
              "internalType": "uint256",
              "name": "endDate",
              "type": "uint256"
            },
            {
              "internalType": "uint256",
              "name": "witnessByDate",
              "type": "uint256"
            },
            {
              "components": [
                {
                  "internalType": "uint256",
                  "name": "value",
                  "type": "uint256"
                },
                {
                  "internalType": "address",
                  "name": "erc20Address",
                  "type": "address"
                }
              ],
              "internalType": "struct ArgaLibrary.Collateral",
              "name": "collateral",
              "type": "tuple"
            },
            {
              "internalType": "string",
              "name": "proof",
              "type": "string"
            },
            {
              "internalType": "uint64",
              "name": "drawId",
              "type": "uint64"
            }
          ],
          "indexed": false,
          "internalType": "struct ArgaLibrary.Declaration",
          "name": "declaration",
          "type": "tuple"
        }
      ],
      "name": "DeclarationStatusChange",
      "type": "event"
    },
    {
      "anonymous": false,
      "inputs": [
        {
          "indexed": false,
          "internalType": "uint256",
          "name": "drawId",
          "type": "uint256"
        }
      ],
      "name": "PoolDrawn",
      "type": "event"
    },
    {
      "inputs": [
        {
          "internalType": "address",
          "name": "actor",
          "type": "address"
        }
      ],
      "name": "actorDeclarations",
      "outputs": [
        {
          "components": [
            {
              "internalType": "uint256",
              "name": "id",
              "type": "uint256"
            },
            {
              "internalType": "enum ArgaLibrary.DeclarationStatus",
              "name": "status",
              "type": "uint8"
            },
            {
              "internalType": "string",
              "name": "summary",
              "type": "string"
            },
            {
              "internalType": "string",
              "name": "description",
              "type": "string"
            },
            {
              "internalType": "address",
              "name": "actor",
              "type": "address"
            },
            {
              "internalType": "address",
              "name": "witness",
              "type": "address"
            },
            {
              "internalType": "uint256",
              "name": "startDate",
              "type": "uint256"
            },
            {
              "internalType": "uint256",
              "name": "endDate",
              "type": "uint256"
            },
            {
              "internalType": "uint256",
              "name": "witnessByDate",
              "type": "uint256"
            },
            {
              "components": [
                {
                  "internalType": "uint256",
                  "name": "value",
                  "type": "uint256"
                },
                {
                  "internalType": "address",
                  "name": "erc20Address",
                  "type": "address"
                }
              ],
              "internalType": "struct ArgaLibrary.Collateral",
              "name": "collateral",
              "type": "tuple"
            },
            {
              "internalType": "string",
              "name": "proof",
              "type": "string"
            },
            {
              "internalType": "uint64",
              "name": "drawId",
              "type": "uint64"
            }
          ],
          "internalType": "struct ArgaLibrary.Declaration[]",
          "name": "",
          "type": "tuple[]"
        }
      ],
      "stateMutability": "view",
      "type": "function"
    },
    {
      "inputs": [
        {
          "internalType": "address",
          "name": "actor",
          "type": "address"
        },
        {
          "internalType": "uint256",
          "name": "amount",
          "type": "uint256"
        }
      ],
      "name": "communityDeclarations",
      "outputs": [
        {
          "components": [
            {
              "internalType": "uint256",
              "name": "id",
              "type": "uint256"
            },
            {
              "internalType": "enum ArgaLibrary.DeclarationStatus",
              "name": "status",
              "type": "uint8"
            },
            {
              "internalType": "string",
              "name": "summary",
              "type": "string"
            },
            {
              "internalType": "string",
              "name": "description",
              "type": "string"
            },
            {
              "internalType": "address",
              "name": "actor",
              "type": "address"
            },
            {
              "internalType": "address",
              "name": "witness",
              "type": "address"
            },
            {
              "internalType": "uint256",
              "name": "startDate",
              "type": "uint256"
            },
            {
              "internalType": "uint256",
              "name": "endDate",
              "type": "uint256"
            },
            {
              "internalType": "uint256",
              "name": "witnessByDate",
              "type": "uint256"
            },
            {
              "components": [
                {
                  "internalType": "uint256",
                  "name": "value",
                  "type": "uint256"
                },
                {
                  "internalType": "address",
                  "name": "erc20Address",
                  "type": "address"
                }
              ],
              "internalType": "struct ArgaLibrary.Collateral",
              "name": "collateral",
              "type": "tuple"
            },
            {
              "internalType": "string",
              "name": "proof",
              "type": "string"
            },
            {
              "internalType": "uint64",
              "name": "drawId",
              "type": "uint64"
            }
          ],
          "internalType": "struct ArgaLibrary.Declaration[]",
          "name": "",
          "type": "tuple[]"
        }
      ],
      "stateMutability": "view",
      "type": "function"
    },
    {
      "inputs": [
        {
          "internalType": "uint256",
          "name": "id",
          "type": "uint256"
        },
        {
          "internalType": "bytes32",
          "name": "randomNumber",
          "type": "bytes32"
        }
      ],
      "name": "concludeDeclarationWithApproval",
      "outputs": [],
      "stateMutability": "nonpayable",
      "type": "function"
    },
    {
      "inputs": [
        {
          "internalType": "uint256",
          "name": "id",
          "type": "uint256"
        },
        {
          "internalType": "bytes32",
          "name": "randomNumber",
          "type": "bytes32"
        }
      ],
      "name": "concludeDeclarationWithRejection",
      "outputs": [],
      "stateMutability": "nonpayable",
      "type": "function"
    },
    {
      "inputs": [
        {
          "internalType": "string",
          "name": "summary",
          "type": "string"
        },
        {
          "internalType": "string",
          "name": "description",
          "type": "string"
        },
        {
          "internalType": "address",
          "name": "actor",
          "type": "address"
        },
        {
          "internalType": "address",
          "name": "witness",
          "type": "address"
        },
        {
          "internalType": "uint256",
          "name": "startDate",
          "type": "uint256"
        },
        {
          "internalType": "uint256",
          "name": "endDate",
          "type": "uint256"
        },
        {
          "internalType": "uint256",
          "name": "witnessByDate",
          "type": "uint256"
        }
      ],
      "name": "declareWithEther",
      "outputs": [
        {
          "components": [
            {
              "internalType": "uint256",
              "name": "id",
              "type": "uint256"
            },
            {
              "internalType": "enum ArgaLibrary.DeclarationStatus",
              "name": "status",
              "type": "uint8"
            },
            {
              "internalType": "string",
              "name": "summary",
              "type": "string"
            },
            {
              "internalType": "string",
              "name": "description",
              "type": "string"
            },
            {
              "internalType": "address",
              "name": "actor",
              "type": "address"
            },
            {
              "internalType": "address",
              "name": "witness",
              "type": "address"
            },
            {
              "internalType": "uint256",
              "name": "startDate",
              "type": "uint256"
            },
            {
              "internalType": "uint256",
              "name": "endDate",
              "type": "uint256"
            },
            {
              "internalType": "uint256",
              "name": "witnessByDate",
              "type": "uint256"
            },
            {
              "components": [
                {
                  "internalType": "uint256",
                  "name": "value",
                  "type": "uint256"
                },
                {
                  "internalType": "address",
                  "name": "erc20Address",
                  "type": "address"
                }
              ],
              "internalType": "struct ArgaLibrary.Collateral",
              "name": "collateral",
              "type": "tuple"
            },
            {
              "internalType": "string",
              "name": "proof",
              "type": "string"
            },
            {
              "internalType": "uint64",
              "name": "drawId",
              "type": "uint64"
            }
          ],
          "internalType": "struct ArgaLibrary.Declaration",
          "name": "",
          "type": "tuple"
        }
      ],
      "stateMutability": "payable",
      "type": "function"
    },
    {
      "inputs": [
        {
          "internalType": "uint256",
          "name": "index",
          "type": "uint256"
        }
      ],
      "name": "getDeclaration",
      "outputs": [
        {
          "components": [
            {
              "internalType": "uint256",
              "name": "id",
              "type": "uint256"
            },
            {
              "internalType": "enum ArgaLibrary.DeclarationStatus",
              "name": "status",
              "type": "uint8"
            },
            {
              "internalType": "string",
              "name": "summary",
              "type": "string"
            },
            {
              "internalType": "string",
              "name": "description",
              "type": "string"
            },
            {
              "internalType": "address",
              "name": "actor",
              "type": "address"
            },
            {
              "internalType": "address",
              "name": "witness",
              "type": "address"
            },
            {
              "internalType": "uint256",
              "name": "startDate",
              "type": "uint256"
            },
            {
              "internalType": "uint256",
              "name": "endDate",
              "type": "uint256"
            },
            {
              "internalType": "uint256",
              "name": "witnessByDate",
              "type": "uint256"
            },
            {
              "components": [
                {
                  "internalType": "uint256",
                  "name": "value",
                  "type": "uint256"
                },
                {
                  "internalType": "address",
                  "name": "erc20Address",
                  "type": "address"
                }
              ],
              "internalType": "struct ArgaLibrary.Collateral",
              "name": "collateral",
              "type": "tuple"
            },
            {
              "internalType": "string",
              "name": "proof",
              "type": "string"
            },
            {
              "internalType": "uint64",
              "name": "drawId",
              "type": "uint64"
            }
          ],
          "internalType": "struct ArgaLibrary.Declaration",
          "name": "",
          "type": "tuple"
        }
      ],
      "stateMutability": "view",
      "type": "function"
    },
    {
      "inputs": [
        {
          "internalType": "uint256",
          "name": "id",
          "type": "uint256"
        },
        {
          "internalType": "string",
          "name": "proof",
          "type": "string"
        }
      ],
      "name": "submitDeclarationProof",
      "outputs": [
        {
          "components": [
            {
              "internalType": "uint256",
              "name": "id",
              "type": "uint256"
            },
            {
              "internalType": "enum ArgaLibrary.DeclarationStatus",
              "name": "status",
              "type": "uint8"
            },
            {
              "internalType": "string",
              "name": "summary",
              "type": "string"
            },
            {
              "internalType": "string",
              "name": "description",
              "type": "string"
            },
            {
              "internalType": "address",
              "name": "actor",
              "type": "address"
            },
            {
              "internalType": "address",
              "name": "witness",
              "type": "address"
            },
            {
              "internalType": "uint256",
              "name": "startDate",
              "type": "uint256"
            },
            {
              "internalType": "uint256",
              "name": "endDate",
              "type": "uint256"
            },
            {
              "internalType": "uint256",
              "name": "witnessByDate",
              "type": "uint256"
            },
            {
              "components": [
                {
                  "internalType": "uint256",
                  "name": "value",
                  "type": "uint256"
                },
                {
                  "internalType": "address",
                  "name": "erc20Address",
                  "type": "address"
                }
              ],
              "internalType": "struct ArgaLibrary.Collateral",
              "name": "collateral",
              "type": "tuple"
            },
            {
              "internalType": "string",
              "name": "proof",
              "type": "string"
            },
            {
              "internalType": "uint64",
              "name": "drawId",
              "type": "uint64"
            }
          ],
          "internalType": "struct ArgaLibrary.Declaration",
          "name": "",
          "type": "tuple"
        }
      ],
      "stateMutability": "nonpayable",
      "type": "function"
    },
    {
      "inputs": [
        {
          "internalType": "address",
          "name": "witness",
          "type": "address"
        }
      ],
      "name": "witnessDeclarations",
      "outputs": [
        {
          "components": [
            {
              "internalType": "uint256",
              "name": "id",
              "type": "uint256"
            },
            {
              "internalType": "enum ArgaLibrary.DeclarationStatus",
              "name": "status",
              "type": "uint8"
            },
            {
              "internalType": "string",
              "name": "summary",
              "type": "string"
            },
            {
              "internalType": "string",
              "name": "description",
              "type": "string"
            },
            {
              "internalType": "address",
              "name": "actor",
              "type": "address"
            },
            {
              "internalType": "address",
              "name": "witness",
              "type": "address"
            },
            {
              "internalType": "uint256",
              "name": "startDate",
              "type": "uint256"
            },
            {
              "internalType": "uint256",
              "name": "endDate",
              "type": "uint256"
            },
            {
              "internalType": "uint256",
              "name": "witnessByDate",
              "type": "uint256"
            },
            {
              "components": [
                {
                  "internalType": "uint256",
                  "name": "value",
                  "type": "uint256"
                },
                {
                  "internalType": "address",
                  "name": "erc20Address",
                  "type": "address"
                }
              ],
              "internalType": "struct ArgaLibrary.Collateral",
              "name": "collateral",
              "type": "tuple"
            },
            {
              "internalType": "string",
              "name": "proof",
              "type": "string"
            },
            {
              "internalType": "uint64",
              "name": "drawId",
              "type": "uint64"
            }
          ],
          "internalType": "struct ArgaLibrary.Declaration[]",
          "name": "",
          "type": "tuple[]"
        }
      ],
      "stateMutability": "view",
      "type": "function"
    }
  ],
  "transactionHash": "0xc63cc52c3c8f1eda5993d4fdc47ca1bbfcf2c02488b8dacad163db8d7d43577a",
  "args": [],
  "numDeployments": 2,
  "solcInputHash": "594f85a7c6a3529bdd87b8e64e0413d2",
  "bytecode": "0x608060405234801561001057600080fd5b50612e6a806100206000396000f3fe60806040526004361061006b5760003560e01c80631bccf5a6146100705780634d571926146100a65780635834162d146100c65780635abd1b06146100e6578063876edba1146101085780639dfa60c6146101285780639fb8c0d814610148578063aff9ecdd14610168575b600080fd5b34801561007c57600080fd5b5061009061008b366004612613565b610188565b60405161009d91906127b9565b60405180910390f35b3480156100b257600080fd5b506100906100c136600461281d565b61058e565b3480156100d257600080fd5b506100906100e136600461281d565b61090d565b3480156100f257600080fd5b50610106610101366004612838565b610c83565b005b61011b6101163660046128fc565b6111db565b60405161009d919061299b565b34801561013457600080fd5b50610106610143366004612838565b611588565b34801561015457600080fd5b5061011b6101633660046129ae565b611a19565b34801561017457600080fd5b5061011b6101833660046129f4565b611d7a565b6060600061019461203d565b6001600160a01b038516600090815260018201602052604081208054835493945090926101d6916101cf9188916101ca91612a23565b612061565b6000612079565b90506000816001600160401b038111156101f2576101f261285a565b60405190808252806020026020018201604052801561022b57816020015b6102186124e3565b8152602001906001900390816102105790505b508454909150600090819061024290600190612a23565b90505b8382101561057f57600086600001828154811061026457610264612a36565b90600052602060002090600d020160405180610180016040529081600082015481526020016001820160009054906101000a900460ff1660038111156102ac576102ac61263d565b60038111156102bd576102bd61263d565b81526020016002820180546102d190612a4c565b80601f01602080910402602001604051908101604052809291908181526020018280546102fd90612a4c565b801561034a5780601f1061031f5761010080835404028352916020019161034a565b820191906000526020600020905b81548152906001019060200180831161032d57829003601f168201915b5050505050815260200160038201805461036390612a4c565b80601f016020809104026020016040519081016040528092919081815260200182805461038f90612a4c565b80156103dc5780601f106103b1576101008083540402835291602001916103dc565b820191906000526020600020905b8154815290600101906020018083116103bf57829003601f168201915b505050918352505060048201546001600160a01b03908116602080840191909152600584015482166040808501919091526006850154606085015260078501546080850152600885015460a0850152805180820190915260098501548152600a8501549092169082015260c0820152600b8201805460e09092019161046090612a4c565b80601f016020809104026020016040519081016040528092919081815260200182805461048c90612a4c565b80156104d95780601f106104ae576101008083540402835291602001916104d9565b820191906000526020600020905b8154815290600101906020018083116104bc57829003601f168201915b5050509183525050600c91909101546001600160401b031660209091015260808101519091506001600160a01b038b811691161480610523575060808101516001600160a01b0316155b156105575781600003610536575061057f565b8161054081612a86565b925050828061054e90612a9d565b93505050610245565b8084848151811061056a5761056a612a36565b60200260200101819052508160000361053657505b50909450505050505b92915050565b6060600061059a61203d565b6001600160a01b038416600090815260018201602052604081208054929350916001600160401b038111156105d1576105d161285a565b60405190808252806020026020018201604052801561060a57816020015b6105f76124e3565b8152602001906001900390816105ef5790505b50905060005b8254811015610904578360000183828154811061062f5761062f612a36565b90600052602060002001548154811061064a5761064a612a36565b90600052602060002090600d020160405180610180016040529081600082015481526020016001820160009054906101000a900460ff1660038111156106925761069261263d565b60038111156106a3576106a361263d565b81526020016002820180546106b790612a4c565b80601f01602080910402602001604051908101604052809291908181526020018280546106e390612a4c565b80156107305780601f1061070557610100808354040283529160200191610730565b820191906000526020600020905b81548152906001019060200180831161071357829003601f168201915b5050505050815260200160038201805461074990612a4c565b80601f016020809104026020016040519081016040528092919081815260200182805461077590612a4c565b80156107c25780601f10610797576101008083540402835291602001916107c2565b820191906000526020600020905b8154815290600101906020018083116107a557829003601f168201915b505050918352505060048201546001600160a01b03908116602080840191909152600584015482166040808501919091526006850154606085015260078501546080850152600885015460a0850152805180820190915260098501548152600a8501549092169082015260c0820152600b8201805460e09092019161084690612a4c565b80601f016020809104026020016040519081016040528092919081815260200182805461087290612a4c565b80156108bf5780601f10610894576101008083540402835291602001916108bf565b820191906000526020600020905b8154815290600101906020018083116108a257829003601f168201915b5050509183525050600c91909101546001600160401b031660209091015282518390839081106108f1576108f1612a36565b6020908102919091010152600101610610565b50949350505050565b6060600061091961203d565b6001600160a01b038416600090815260028201602052604081208054929350916001600160401b038111156109505761095061285a565b60405190808252806020026020018201604052801561098957816020015b6109766124e3565b81526020019060019003908161096e5790505b50905060005b825481101561090457836000018382815481106109ae576109ae612a36565b9060005260206000200154815481106109c9576109c9612a36565b90600052602060002090600d020160405180610180016040529081600082015481526020016001820160009054906101000a900460ff166003811115610a1157610a1161263d565b6003811115610a2257610a2261263d565b8152602001600282018054610a3690612a4c565b80601f0160208091040260200160405190810160405280929190818152602001828054610a6290612a4c565b8015610aaf5780601f10610a8457610100808354040283529160200191610aaf565b820191906000526020600020905b815481529060010190602001808311610a9257829003601f168201915b50505050508152602001600382018054610ac890612a4c565b80601f0160208091040260200160405190810160405280929190818152602001828054610af490612a4c565b8015610b415780601f10610b1657610100808354040283529160200191610b41565b820191906000526020600020905b815481529060010190602001808311610b2457829003601f168201915b505050918352505060048201546001600160a01b03908116602080840191909152600584015482166040808501919091526006850154606085015260078501546080850152600885015460a0850152805180820190915260098501548152600a8501549092169082015260c0820152600b8201805460e090920191610bc590612a4c565b80601f0160208091040260200160405190810160405280929190818152602001828054610bf190612a4c565b8015610c3e5780601f10610c1357610100808354040283529160200191610c3e565b820191906000526020600020905b815481529060010190602001808311610c2157829003601f168201915b5050509183525050600c91909101546001600160401b03166020909101528251839083908110610c7057610c70612a36565b602090810291909101015260010161098f565b6000610c8d61203d565b90506000610c99612088565b90506000610ca56120ac565b90506000836000018681548110610cbe57610cbe612a36565b60009182526020909120600d9091020160058101549091506001600160a01b03163314610d095733604051631ee0829160e31b8152600401610d009190612ab6565b60405180910390fd5b60018082015460ff166003811115610d2357610d2361263d565b14610d6a5760405162461bcd60e51b81526020600482015260176024820152761c1c9bdbd9881b9bdd081cdd589b5a5d1d1959081e595d604a1b6044820152606401610d00565b42816008015411610dba5760405162461bcd60e51b815260206004820152601a6024820152791dda5d1b995cdcc8189e4819185d19481a185cc81c185cdcd95960321b6044820152606401610d00565b60018101805460ff19166002179055604051600080516020612e1583398151915290610de7908390612b53565b60405180910390a16000606483600101548360090160000154610e0a9190612c67565b610e149190612c7e565b90506000606484600201548460090160000154610e319190612c67565b610e3b9190612c7e565b9050600081838560090160000154610e539190612a23565b610e5d9190612a23565b85546001600160a01b03908116600090815260208981526040918290208251808401909352878352600a89015490931690820152919250610e9d916120d0565b60058401546001600160a01b03908116600090815260208881526040918290208251808401909352868352600a88015490931690820152610ede91906120d0565b60048401546001600160a01b03908116600090815260208881526040918290208251808401909352848352600a88015490931690820152610f1f91906120d0565b6040805161018081019091528454815260018501546000916111ac918790602083019060ff166003811115610f5657610f5661263d565b6003811115610f6757610f6761263d565b8152602001600282018054610f7b90612a4c565b80601f0160208091040260200160405190810160405280929190818152602001828054610fa790612a4c565b8015610ff45780601f10610fc957610100808354040283529160200191610ff4565b820191906000526020600020905b815481529060010190602001808311610fd757829003601f168201915b5050505050815260200160038201805461100d90612a4c565b80601f016020809104026020016040519081016040528092919081815260200182805461103990612a4c565b80156110865780601f1061105b57610100808354040283529160200191611086565b820191906000526020600020905b81548152906001019060200180831161106957829003601f168201915b505050918352505060048201546001600160a01b03908116602080840191909152600584015482166040808501919091526006850154606085015260078501546080850152600885015460a0850152805180820190915260098501548152600a8501549092169082015260c0820152600b8201805460e09092019161110a90612a4c565b80601f016020809104026020016040519081016040528092919081815260200182805461113690612a4c565b80156111835780601f1061115857610100808354040283529160200191611183565b820191906000526020600020905b81548152906001019060200180831161116657829003601f168201915b5050509183525050600c91909101546001600160401b031660209091015260018801548b61219d565b600c9590950180546001600160401b0319166001600160401b0390961695909517909455505050505050505050565b6111e36124e3565b6001600160a01b03851661120c5784604051631ee0829160e31b8152600401610d009190612ab6565b6001600160a01b0386166112355785604051635b48bfd160e11b8152600401610d009190612ab6565b6001600160a01b03861661128b5760405162461bcd60e51b815260206004820181905260248201527f63616e277420757365207a65726f206164647265737320666f72206163746f726044820152606401610d00565b838310156112db5760405162461bcd60e51b815260206004820152601f60248201527f656e6444617465206d75737420626520616674657220737461727444617465006044820152606401610d00565b828210156113375760405162461bcd60e51b815260206004820152602360248201527f7769746e657373427944617465206d75737420626520616674657220656e644460448201526261746560e81b6064820152608401610d00565b600061134161203d565b80546040805161018081018252828152600060208083018290528284018f9052606083018e90526001600160a01b03808e1660808501528c1660a084015260c083018b905260e083018a905261010083018990528351808501855234815280820183905261012084015283519081018452818152610140830152610160820152905192935090917f773d144b4695b99315068c7b47bc63ae0927d765234ab0a8c9731d53471e0543906113f590839061299b565b60405180910390a182546001818101855560008581526020908190208451600d90940201928355830151828201805485949360ff19909116908360038111156114405761144061263d565b0217905550604082015160028201906114599082612cf0565b506060820151600382019061146e9082612cf0565b5060808201516004820180546001600160a01b039283166001600160a01b03199182161790915560a084015160058401805491841691831691909117905560c0840151600684015560e0840151600784015561010084015160088401556101208401518051600985015560200151600a84018054919093169116179055610140820151600b8201906115009082612cf0565b506101609190910151600c90910180546001600160401b0319166001600160401b039092169190911790556001600160a01b03988916600090815260018481016020908152604080842080548085018255908552828520018690559a909b16825260029094018a52978820805493840181558852979096200194909455509295945050505050565b600061159261203d565b9050600061159e612088565b905060006115aa6120ac565b905060006115b661243a565b905060008460000187815481106115cf576115cf612a36565b60009182526020909120600d9091020160058101549091506001600160a01b031633146116115733604051631ee0829160e31b8152600401610d009190612ab6565b60018101805460ff19166003179055604051600080516020612e158339815191529061163e908390612b53565b60405180910390a16040805161018081019091528154815260018201546000916118d3918490602083019060ff16600381111561167d5761167d61263d565b600381111561168e5761168e61263d565b81526020016002820180546116a290612a4c565b80601f01602080910402602001604051908101604052809291908181526020018280546116ce90612a4c565b801561171b5780601f106116f05761010080835404028352916020019161171b565b820191906000526020600020905b8154815290600101906020018083116116fe57829003601f168201915b5050505050815260200160038201805461173490612a4c565b80601f016020809104026020016040519081016040528092919081815260200182805461176090612a4c565b80156117ad5780601f10611782576101008083540402835291602001916117ad565b820191906000526020600020905b81548152906001019060200180831161179057829003601f168201915b505050918352505060048201546001600160a01b03908116602080840191909152600584015482166040808501919091526006850154606085015260078501546080850152600885015460a0850152805180820190915260098501548152600a8501549092169082015260c0820152600b8201805460e09092019161183190612a4c565b80601f016020809104026020016040519081016040528092919081815260200182805461185d90612a4c565b80156118aa5780601f1061187f576101008083540402835291602001916118aa565b820191906000526020600020905b81548152906001019060200180831161188d57829003601f168201915b5050509183525050600c91909101546001600160401b031660209091015260018601548961219d565b600c830180546001600160401b0319166001600160401b0383161790556001850154600984015491925060009160649161190c91612c67565b6119169190612c7e565b905060006064866002015485600901600001546119339190612c67565b61193d9190612c7e565b90506000818386600901600001546119559190612a23565b61195f9190612a23565b60408051808201909152818152600a8701546001600160a01b0316602082015290915061198d9087906120d0565b86546001600160a01b03908116600090815260208a81526040918290208251808401909352868352600a890154909316908201526119cb91906120d0565b60058501546001600160a01b03908116600090815260208a81526040918290208251808401909352868352600a89015490931690820152611a0c91906120d0565b5050505050505050505050565b611a216124e3565b6000611a2b61203d565b90506000816000018581548110611a4457611a44612a36565b60009182526020909120600d9091020160048101549091506001600160a01b03163314611ab15760405162461bcd60e51b815260206004820152601b60248201527a37b7363c9030b1ba37b91031b0b71039bab136b4ba10383937b7b360291b6044820152606401610d00565b600b8101611abf8582612cf0565b506001818101805460ff19169091179055604051600080516020612e1583398151915290611aee908390612b53565b60405180910390a16040805161018081019091528154815260018201548290602083019060ff166003811115611b2657611b2661263d565b6003811115611b3757611b3761263d565b8152602001600282018054611b4b90612a4c565b80601f0160208091040260200160405190810160405280929190818152602001828054611b7790612a4c565b8015611bc45780601f10611b9957610100808354040283529160200191611bc4565b820191906000526020600020905b815481529060010190602001808311611ba757829003601f168201915b50505050508152602001600382018054611bdd90612a4c565b80601f0160208091040260200160405190810160405280929190818152602001828054611c0990612a4c565b8015611c565780601f10611c2b57610100808354040283529160200191611c56565b820191906000526020600020905b815481529060010190602001808311611c3957829003601f168201915b505050918352505060048201546001600160a01b03908116602080840191909152600584015482166040808501919091526006850154606085015260078501546080850152600885015460a0850152805180820190915260098501548152600a8501549092169082015260c0820152600b8201805460e090920191611cda90612a4c565b80601f0160208091040260200160405190810160405280929190818152602001828054611d0690612a4c565b8015611d535780601f10611d2857610100808354040283529160200191611d53565b820191906000526020600020905b815481529060010190602001808311611d3657829003601f168201915b5050509183525050600c91909101546001600160401b031660209091015295945050505050565b611d826124e3565b6000611d8c61203d565b9050806000018381548110611da357611da3612a36565b90600052602060002090600d020160405180610180016040529081600082015481526020016001820160009054906101000a900460ff166003811115611deb57611deb61263d565b6003811115611dfc57611dfc61263d565b8152602001600282018054611e1090612a4c565b80601f0160208091040260200160405190810160405280929190818152602001828054611e3c90612a4c565b8015611e895780601f10611e5e57610100808354040283529160200191611e89565b820191906000526020600020905b815481529060010190602001808311611e6c57829003601f168201915b50505050508152602001600382018054611ea290612a4c565b80601f0160208091040260200160405190810160405280929190818152602001828054611ece90612a4c565b8015611f1b5780601f10611ef057610100808354040283529160200191611f1b565b820191906000526020600020905b815481529060010190602001808311611efe57829003601f168201915b505050918352505060048201546001600160a01b03908116602080840191909152600584015482166040808501919091526006850154606085015260078501546080850152600885015460a0850152805180820190915260098501548152600a8501549092169082015260c0820152600b8201805460e090920191611f9f90612a4c565b80601f0160208091040260200160405190810160405280929190818152602001828054611fcb90612a4c565b80156120185780601f10611fed57610100808354040283529160200191612018565b820191906000526020600020905b815481529060010190602001808311611ffb57829003601f168201915b5050509183525050600c91909101546001600160401b03166020909101529392505050565b7f1acbe974883c55f225078acf5d935d6979fbdbfb554c0ddb53d9ca17a6ab711790565b60008183106120705781612072565b825b9392505050565b60008183116120705781612072565b7f5cfbc78b041cdae0090d292526e854c4bb5a42efb3400aba4723c6dcaccaabe190565b7f907d19155bd9377436326dc9bd9b43cca52708d4f6bf5b79c72bc81d628c705c90565b60005b82548110156121575760008382815481106120f0576120f0612a36565b9060005260206000209060020201905082602001516001600160a01b03168160010160009054906101000a90046001600160a01b03166001600160a01b03161461213a575061214f565b825181546121489190612daf565b9055505050565b6001016120d3565b50815460018082018455600093845260209384902083516002909302019182559190920151910180546001600160a01b0319166001600160a01b03909216919091179055565b6000806121a861243a565b80549091506000036121be576000915050612072565b6004808201546002830154604051631711922960e31b81526000936001600160a01b039384169363b88c9148936121f89391169101612ab6565b602060405180830381865afa158015612215573d6000803e3d6000fd5b505050506040513d601f19601f820116820180604052508101906122399190612dc2565b6001600160801b03169050600061224e612088565b9050600061225a6120ac565b6040805180820182528581526000602080830182905284546001600160a01b031682528690529190912091925090612292908261245e565b60048581015460028701546040516319cb825f60e01b81526001600160a01b0391821693810193909352602483018a90526000929116906319cb825f90879060440160206040518083038185885af11580156122f2573d6000803e3d6000fd5b50505050506040513d601f19601f820116820180604052508101906123179190612deb565b9050600086600101548a8860000160008154811061233757612337612a36565b60009182526020909120600290910201546101208e0151516123599190612c7e565b6123639190612c67565b61236d9190612c67565b6001600160401b038316600090815260058901602052604090208c518155600281018290558854919250906123a89060018301908a90612554565b506101208c0151516005820155875488906000906123c8576123c8612a36565b6000918252602091829020600290910201546006830155600782018c9055600189015460088301556040516001600160401b03851681527fc050c9b02b366fbedbd23e1752e45815b452bdaeb5c40e03376278000bdb76cb910160405180910390a150909a9950505050505050505050565b7f57b54c9a1067e6ab879c66c176c4e86e41fe1dcf5187b31dc2b93365087c7afb90565b60005b82548110156124de57600083828154811061247e5761247e612a36565b9060005260206000209060020201905082602001516001600160a01b03168160010160009054906101000a90046001600160a01b03166001600160a01b0316146124c857506124d6565b825181546121489190612a23565b600101612461565b505050565b6040805161018081018252600080825260208083018290526060838501819052808401526080830182905260a0830182905260c0830182905260e083018290526101008301829052835180850190945281845283015290610120820190815260606020820152600060409091015290565b8280548282559060005260206000209060020281019282156125c05760005260206000209160020282015b828111156125c0578254825560018084015490830180546001600160a01b0319166001600160a01b039092169190911790556002928301929091019061257f565b506125cc9291506125d0565b5090565b5b808211156125cc57600081556001810180546001600160a01b03191690556002016125d1565b80356001600160a01b038116811461260e57600080fd5b919050565b6000806040838503121561262657600080fd5b61262f836125f7565b946020939093013593505050565b634e487b7160e01b600052602160045260246000fd5b6004811061267157634e487b7160e01b600052602160045260246000fd5b9052565b6000815180845260005b8181101561269b5760208185018101518683018201520161267f565b506000602082860101526020601f19601f83011685010191505092915050565b6001600160a01b03169052565b60006101a08251845260208301516126e36020860182612653565b5060408301518160408601526126fb82860182612675565b915050606083015184820360608601526127158282612675565b915050608083015161272a60808601826126bb565b5060a083015161273d60a08601826126bb565b5060c0838101519085015260e0808401519085015261010080840151908501526101208084015180518287015260208101516001600160a01b031661014087015250506101408301516101608583038187015261279a8383612675565b9401516001600160401b03166101809590950194909452509092915050565b600060208083016020845280855180835260408601915060408160051b87010192506020870160005b8281101561281057603f198886030184526127fe8583516126c8565b945092850192908501906001016127e2565b5092979650505050505050565b60006020828403121561282f57600080fd5b612072826125f7565b6000806040838503121561284b57600080fd5b50508035926020909101359150565b634e487b7160e01b600052604160045260246000fd5b600082601f83011261288157600080fd5b81356001600160401b038082111561289b5761289b61285a565b604051601f8301601f19908116603f011681019082821181831017156128c3576128c361285a565b816040528381528660208588010111156128dc57600080fd5b836020870160208301376000602085830101528094505050505092915050565b600080600080600080600060e0888a03121561291757600080fd5b87356001600160401b038082111561292e57600080fd5b61293a8b838c01612870565b985060208a013591508082111561295057600080fd5b5061295d8a828b01612870565b96505061296c604089016125f7565b945061297a606089016125f7565b9699959850939660808101359560a0820135955060c0909101359350915050565b60208152600061207260208301846126c8565b600080604083850312156129c157600080fd5b8235915060208301356001600160401b038111156129de57600080fd5b6129ea85828601612870565b9150509250929050565b600060208284031215612a0657600080fd5b5035919050565b634e487b7160e01b600052601160045260246000fd5b8181038181111561058857610588612a0d565b634e487b7160e01b600052603260045260246000fd5b600181811c90821680612a6057607f821691505b602082108103612a8057634e487b7160e01b600052602260045260246000fd5b50919050565b600081612a9557612a95612a0d565b506000190190565b600060018201612aaf57612aaf612a0d565b5060010190565b6001600160a01b0391909116815260200190565b60008154612ad781612a4c565b808552602060018381168015612af45760018114612b0e57612b3c565b60ff1985168884015283151560051b880183019550612b3c565b866000528260002060005b85811015612b345781548a8201860152908301908401612b19565b890184019650505b505050505092915050565b6001600160a01b031690565b60208152815460208201526000612b6e600184015460ff1690565b612b7b6040840182612653565b506101a0806060840152612b966101c0840160028601612aca565b601f1980858303016080860152612bb08260038801612aca565b9150612bbf6004870154612b47565b612bcc60a08701826126bb565b50612bda6005870154612b47565b612be760c08701826126bb565b50600686015460e0860152600786015461010086015260088601546101208601526009860154610140860152600a8601546001600160a01b031661016086015284820301610180850152612c3e81600b8701612aca565b9050612c54600c8601546001600160401b031690565b6001600160401b03811685840152610904565b808202811582820484141761058857610588612a0d565b600082612c9b57634e487b7160e01b600052601260045260246000fd5b500490565b601f8211156124de576000816000526020600020601f850160051c81016020861015612cc95750805b601f850160051c820191505b81811015612ce857828155600101612cd5565b505050505050565b81516001600160401b03811115612d0957612d0961285a565b612d1d81612d178454612a4c565b84612ca0565b602080601f831160018114612d525760008415612d3a5750858301515b600019600386901b1c1916600185901b178555612ce8565b600085815260208120601f198616915b82811015612d8157888601518255948401946001909101908401612d62565b5085821015612d9f5787850151600019600388901b60f8161c191681555b5050505050600190811b01905550565b8082018082111561058857610588612a0d565b600060208284031215612dd457600080fd5b81516001600160801b038116811461207257600080fd5b600060208284031215612dfd57600080fd5b81516001600160401b038116811461207257600080fdfe75b9bf33606a89ce09a48cf11534e610afd767bc18772c928d4eb4d3fdd40072a26469706673582212208ccb84bda5553d80aa85ecc8f3f472e299699ac7efcfbf5386b3c9d2d3af0a5764736f6c63430008160033",
  "devdoc": {
    "kind": "dev",
    "methods": {},
    "version": 1
  },
  "userdoc": {
    "kind": "user",
    "methods": {},
    "version": 1
  },
  "storageLayout": {
    "storage": [],
    "types": null
  }
}