{
  "address": "0xAF3f56fC2c4C8C50805dC64BF8cA629Ca2F17109",
  "abi": [
    {
      "inputs": [
        {
          "internalType": "address payable",
          "name": "destination",
          "type": "address"
        },
        {
          "internalType": "address[]",
          "name": "erc20Addresses",
          "type": "address[]"
        }
      ],
      "name": "redeem",
      "outputs": [],
      "stateMutability": "nonpayable",
      "type": "function"
    },
    {
      "inputs": [
        {
          "internalType": "address",
          "name": "party",
          "type": "address"
        }
      ],
      "name": "redemptionsForParty",
      "outputs": [
        {
          "components": [
            {
              "internalType": "uint256",
              "name": "value",
              "type": "uint256"
            },
            {
              "internalType": "address",
              "name": "erc20Address",
              "type": "address"
            }
          ],
          "internalType": "struct ArgaLibrary.Collateral[]",
          "name": "",
          "type": "tuple[]"
        }
      ],
      "stateMutability": "view",
      "type": "function"
    }
  ],
  "transactionHash": "0x70a2e2d508e33f124aac3695056e73d77df0f20873864aaeadecbe94394e7b98",
  "args": [],
  "numDeployments": 1,
  "solcInputHash": "03ead49419304f1061aea1d2404a3e18",
  "bytecode": "0x608060405234801561001057600080fd5b506104e0806100206000396000f3fe608060405234801561001057600080fd5b50600436106100365760003560e01c806353d48f431461003b578063fafdb24f14610064575b600080fd5b61004e610049366004610391565b610079565b60405161005b91906103b5565b60405180910390f35b61007761007236600461040d565b61010f565b005b60606000610085610355565b6001600160a01b038416600090815260208281526040808320805482518185028101850190935280835294955090939092909184015b828210156101035760008481526020908190206040805180820190915260028502909101805482526001908101546001600160a01b03168284015290835290920191016100bb565b50505050915050919050565b6000610119610355565b3360008181526020839052604081209293509091905b8481101561034c57600086868381811061014b5761014b610494565b90506020020160208101906101609190610391565b90506000805b84548110156102f457600085828154811061018357610183610494565b6000918252602090912060029091020160018101549091506001600160a01b038581169116146101b357506102ec565b6001600160a01b0384166102ea5780546102115760405162461bcd60e51b815260206004820152601a6024820152794e6f2045544820617661696c61626c6520746f2072656465656d60301b60448201526064015b60405180910390fd5b80546040516000916001600160a01b038e1691611388919084818181858888f193505050503d8060008114610262576040519150601f19603f3d011682016040523d82523d6000602084013e610267565b606091505b50509050806102af5760405162461bcd60e51b81526020600482015260146024820152732330b4b632b2103a379039b2b7321022ba3432b960611b6044820152606401610208565b600193508683815481106102c5576102c5610494565b60009182526020822060029091020190815560010180546001600160a01b0319169055505b505b600101610166565b50806103425760405162461bcd60e51b815260206004820152601f60248201527f4e6f20726564656d7074696f6e20666f756e6420666f722061646472657373006044820152606401610208565b505060010161012f565b50505050505050565b7f5cfbc78b041cdae0090d292526e854c4bb5a42efb3400aba4723c6dcaccaabe190565b6001600160a01b038116811461038e57600080fd5b50565b6000602082840312156103a357600080fd5b81356103ae81610379565b9392505050565b602080825282518282018190526000919060409081850190868401855b82811015610400578151805185528601516001600160a01b03168685015292840192908501906001016103d2565b5091979650505050505050565b60008060006040848603121561042257600080fd5b833561042d81610379565b925060208401356001600160401b038082111561044957600080fd5b818601915086601f83011261045d57600080fd5b81358181111561046c57600080fd5b8760208260051b850101111561048157600080fd5b6020830194508093505050509250925092565b634e487b7160e01b600052603260045260246000fdfea264697066735822122087e94884aa6e40e684867d75615c79d2a2d5fa2520f51a34d228faf657c2a42c64736f6c63430008160033",
  "devdoc": {
    "kind": "dev",
    "methods": {},
    "version": 1
  },
  "userdoc": {
    "kind": "user",
    "methods": {},
    "version": 1
  },
  "storageLayout": {
    "storage": [],
    "types": null
  }
}