{
	"address": "0xdf9f68b9a9f601bF0b0da0FaBC8a4E6E77A7258B",
	"abi": [
		{
			"inputs": [
				{
					"internalType": "address",
					"name": "actor",
					"type": "address"
				}
			],
			"name": "InvalidActor",
			"type": "error"
		},
		{
			"inputs": [
				{
					"internalType": "address",
					"name": "witness",
					"type": "address"
				}
			],
			"name": "InvalidWitness",
			"type": "error"
		},
		{
			"anonymous": false,
			"inputs": [
				{
					"components": [
						{
							"internalType": "uint256",
							"name": "id",
							"type": "uint256"
						},
						{
							"internalType": "enum ArgaLibrary.DeclarationStatus",
							"name": "status",
							"type": "uint8"
						},
						{
							"internalType": "string",
							"name": "summary",
							"type": "string"
						},
						{
							"internalType": "string",
							"name": "description",
							"type": "string"
						},
						{
							"internalType": "address",
							"name": "actor",
							"type": "address"
						},
						{
							"internalType": "address",
							"name": "witness",
							"type": "address"
						},
						{
							"internalType": "uint256",
							"name": "startDate",
							"type": "uint256"
						},
						{
							"internalType": "uint256",
							"name": "endDate",
							"type": "uint256"
						},
						{
							"internalType": "uint256",
							"name": "witnessByDate",
							"type": "uint256"
						},
						{
							"components": [
								{
									"internalType": "uint256",
									"name": "value",
									"type": "uint256"
								},
								{
									"internalType": "address",
									"name": "erc20Address",
									"type": "address"
								}
							],
							"internalType": "struct ArgaLibrary.Collateral",
							"name": "collateral",
							"type": "tuple"
						},
						{
							"internalType": "string",
							"name": "proof",
							"type": "string"
						},
						{
							"internalType": "uint64",
							"name": "drawId",
							"type": "uint64"
						}
					],
					"indexed": false,
					"internalType": "struct ArgaLibrary.Declaration",
					"name": "declaration",
					"type": "tuple"
				}
			],
			"name": "DeclarationMade",
			"type": "event"
		},
		{
			"anonymous": false,
			"inputs": [
				{
					"components": [
						{
							"internalType": "uint256",
							"name": "id",
							"type": "uint256"
						},
						{
							"internalType": "enum ArgaLibrary.DeclarationStatus",
							"name": "status",
							"type": "uint8"
						},
						{
							"internalType": "string",
							"name": "summary",
							"type": "string"
						},
						{
							"internalType": "string",
							"name": "description",
							"type": "string"
						},
						{
							"internalType": "address",
							"name": "actor",
							"type": "address"
						},
						{
							"internalType": "address",
							"name": "witness",
							"type": "address"
						},
						{
							"internalType": "uint256",
							"name": "startDate",
							"type": "uint256"
						},
						{
							"internalType": "uint256",
							"name": "endDate",
							"type": "uint256"
						},
						{
							"internalType": "uint256",
							"name": "witnessByDate",
							"type": "uint256"
						},
						{
							"components": [
								{
									"internalType": "uint256",
									"name": "value",
									"type": "uint256"
								},
								{
									"internalType": "address",
									"name": "erc20Address",
									"type": "address"
								}
							],
							"internalType": "struct ArgaLibrary.Collateral",
							"name": "collateral",
							"type": "tuple"
						},
						{
							"internalType": "string",
							"name": "proof",
							"type": "string"
						},
						{
							"internalType": "uint64",
							"name": "drawId",
							"type": "uint64"
						}
					],
					"indexed": false,
					"internalType": "struct ArgaLibrary.Declaration",
					"name": "declaration",
					"type": "tuple"
				}
			],
			"name": "DeclarationStatusChange",
			"type": "event"
		},
		{
			"anonymous": false,
			"inputs": [
				{
					"indexed": false,
					"internalType": "uint256",
					"name": "drawId",
					"type": "uint256"
				}
			],
			"name": "PoolDrawn",
			"type": "event"
		},
		{
			"inputs": [
				{
					"internalType": "address",
					"name": "actor",
					"type": "address"
				}
			],
			"name": "actorDeclarations",
			"outputs": [
				{
					"components": [
						{
							"internalType": "uint256",
							"name": "id",
							"type": "uint256"
						},
						{
							"internalType": "enum ArgaLibrary.DeclarationStatus",
							"name": "status",
							"type": "uint8"
						},
						{
							"internalType": "string",
							"name": "summary",
							"type": "string"
						},
						{
							"internalType": "string",
							"name": "description",
							"type": "string"
						},
						{
							"internalType": "address",
							"name": "actor",
							"type": "address"
						},
						{
							"internalType": "address",
							"name": "witness",
							"type": "address"
						},
						{
							"internalType": "uint256",
							"name": "startDate",
							"type": "uint256"
						},
						{
							"internalType": "uint256",
							"name": "endDate",
							"type": "uint256"
						},
						{
							"internalType": "uint256",
							"name": "witnessByDate",
							"type": "uint256"
						},
						{
							"components": [
								{
									"internalType": "uint256",
									"name": "value",
									"type": "uint256"
								},
								{
									"internalType": "address",
									"name": "erc20Address",
									"type": "address"
								}
							],
							"internalType": "struct ArgaLibrary.Collateral",
							"name": "collateral",
							"type": "tuple"
						},
						{
							"internalType": "string",
							"name": "proof",
							"type": "string"
						},
						{
							"internalType": "uint64",
							"name": "drawId",
							"type": "uint64"
						}
					],
					"internalType": "struct ArgaLibrary.Declaration[]",
					"name": "",
					"type": "tuple[]"
				}
			],
			"stateMutability": "view",
			"type": "function"
		},
		{
			"inputs": [
				{
					"internalType": "uint256",
					"name": "page",
					"type": "uint256"
				},
				{
					"internalType": "uint256",
					"name": "size",
					"type": "uint256"
				}
			],
			"name": "allDeclarations",
			"outputs": [
				{
					"components": [
						{
							"internalType": "uint256",
							"name": "id",
							"type": "uint256"
						},
						{
							"internalType": "enum ArgaLibrary.DeclarationStatus",
							"name": "status",
							"type": "uint8"
						},
						{
							"internalType": "string",
							"name": "summary",
							"type": "string"
						},
						{
							"internalType": "string",
							"name": "description",
							"type": "string"
						},
						{
							"internalType": "address",
							"name": "actor",
							"type": "address"
						},
						{
							"internalType": "address",
							"name": "witness",
							"type": "address"
						},
						{
							"internalType": "uint256",
							"name": "startDate",
							"type": "uint256"
						},
						{
							"internalType": "uint256",
							"name": "endDate",
							"type": "uint256"
						},
						{
							"internalType": "uint256",
							"name": "witnessByDate",
							"type": "uint256"
						},
						{
							"components": [
								{
									"internalType": "uint256",
									"name": "value",
									"type": "uint256"
								},
								{
									"internalType": "address",
									"name": "erc20Address",
									"type": "address"
								}
							],
							"internalType": "struct ArgaLibrary.Collateral",
							"name": "collateral",
							"type": "tuple"
						},
						{
							"internalType": "string",
							"name": "proof",
							"type": "string"
						},
						{
							"internalType": "uint64",
							"name": "drawId",
							"type": "uint64"
						}
					],
					"internalType": "struct ArgaLibrary.Declaration[]",
					"name": "",
					"type": "tuple[]"
				}
			],
			"stateMutability": "view",
			"type": "function"
		},
		{
			"inputs": [
				{
					"internalType": "address",
					"name": "actor",
					"type": "address"
				},
				{
					"internalType": "uint256",
					"name": "amount",
					"type": "uint256"
				}
			],
			"name": "communityDeclarations",
			"outputs": [
				{
					"components": [
						{
							"internalType": "uint256",
							"name": "id",
							"type": "uint256"
						},
						{
							"internalType": "enum ArgaLibrary.DeclarationStatus",
							"name": "status",
							"type": "uint8"
						},
						{
							"internalType": "string",
							"name": "summary",
							"type": "string"
						},
						{
							"internalType": "string",
							"name": "description",
							"type": "string"
						},
						{
							"internalType": "address",
							"name": "actor",
							"type": "address"
						},
						{
							"internalType": "address",
							"name": "witness",
							"type": "address"
						},
						{
							"internalType": "uint256",
							"name": "startDate",
							"type": "uint256"
						},
						{
							"internalType": "uint256",
							"name": "endDate",
							"type": "uint256"
						},
						{
							"internalType": "uint256",
							"name": "witnessByDate",
							"type": "uint256"
						},
						{
							"components": [
								{
									"internalType": "uint256",
									"name": "value",
									"type": "uint256"
								},
								{
									"internalType": "address",
									"name": "erc20Address",
									"type": "address"
								}
							],
							"internalType": "struct ArgaLibrary.Collateral",
							"name": "collateral",
							"type": "tuple"
						},
						{
							"internalType": "string",
							"name": "proof",
							"type": "string"
						},
						{
							"internalType": "uint64",
							"name": "drawId",
							"type": "uint64"
						}
					],
					"internalType": "struct ArgaLibrary.Declaration[]",
					"name": "",
					"type": "tuple[]"
				}
			],
			"stateMutability": "view",
			"type": "function"
		},
		{
			"inputs": [
				{
					"internalType": "uint256",
					"name": "id",
					"type": "uint256"
				},
				{
					"internalType": "bytes32",
					"name": "randomNumber",
					"type": "bytes32"
				}
			],
			"name": "concludeDeclarationWithApproval",
			"outputs": [],
			"stateMutability": "nonpayable",
			"type": "function"
		},
		{
			"inputs": [
				{
					"internalType": "uint256",
					"name": "id",
					"type": "uint256"
				},
				{
					"internalType": "bytes32",
					"name": "randomNumber",
					"type": "bytes32"
				}
			],
			"name": "concludeDeclarationWithRejection",
			"outputs": [],
			"stateMutability": "nonpayable",
			"type": "function"
		},
		{
			"inputs": [
				{
					"internalType": "string",
					"name": "summary",
					"type": "string"
				},
				{
					"internalType": "string",
					"name": "description",
					"type": "string"
				},
				{
					"internalType": "address",
					"name": "actor",
					"type": "address"
				},
				{
					"internalType": "address",
					"name": "witness",
					"type": "address"
				},
				{
					"internalType": "uint256",
					"name": "startDate",
					"type": "uint256"
				},
				{
					"internalType": "uint256",
					"name": "endDate",
					"type": "uint256"
				},
				{
					"internalType": "uint256",
					"name": "witnessByDate",
					"type": "uint256"
				}
			],
			"name": "declareWithEther",
			"outputs": [
				{
					"components": [
						{
							"internalType": "uint256",
							"name": "id",
							"type": "uint256"
						},
						{
							"internalType": "enum ArgaLibrary.DeclarationStatus",
							"name": "status",
							"type": "uint8"
						},
						{
							"internalType": "string",
							"name": "summary",
							"type": "string"
						},
						{
							"internalType": "string",
							"name": "description",
							"type": "string"
						},
						{
							"internalType": "address",
							"name": "actor",
							"type": "address"
						},
						{
							"internalType": "address",
							"name": "witness",
							"type": "address"
						},
						{
							"internalType": "uint256",
							"name": "startDate",
							"type": "uint256"
						},
						{
							"internalType": "uint256",
							"name": "endDate",
							"type": "uint256"
						},
						{
							"internalType": "uint256",
							"name": "witnessByDate",
							"type": "uint256"
						},
						{
							"components": [
								{
									"internalType": "uint256",
									"name": "value",
									"type": "uint256"
								},
								{
									"internalType": "address",
									"name": "erc20Address",
									"type": "address"
								}
							],
							"internalType": "struct ArgaLibrary.Collateral",
							"name": "collateral",
							"type": "tuple"
						},
						{
							"internalType": "string",
							"name": "proof",
							"type": "string"
						},
						{
							"internalType": "uint64",
							"name": "drawId",
							"type": "uint64"
						}
					],
					"internalType": "struct ArgaLibrary.Declaration",
					"name": "",
					"type": "tuple"
				}
			],
			"stateMutability": "payable",
			"type": "function"
		},
		{
			"inputs": [
				{
					"internalType": "uint256",
					"name": "index",
					"type": "uint256"
				}
			],
			"name": "getDeclaration",
			"outputs": [
				{
					"components": [
						{
							"internalType": "uint256",
							"name": "id",
							"type": "uint256"
						},
						{
							"internalType": "enum ArgaLibrary.DeclarationStatus",
							"name": "status",
							"type": "uint8"
						},
						{
							"internalType": "string",
							"name": "summary",
							"type": "string"
						},
						{
							"internalType": "string",
							"name": "description",
							"type": "string"
						},
						{
							"internalType": "address",
							"name": "actor",
							"type": "address"
						},
						{
							"internalType": "address",
							"name": "witness",
							"type": "address"
						},
						{
							"internalType": "uint256",
							"name": "startDate",
							"type": "uint256"
						},
						{
							"internalType": "uint256",
							"name": "endDate",
							"type": "uint256"
						},
						{
							"internalType": "uint256",
							"name": "witnessByDate",
							"type": "uint256"
						},
						{
							"components": [
								{
									"internalType": "uint256",
									"name": "value",
									"type": "uint256"
								},
								{
									"internalType": "address",
									"name": "erc20Address",
									"type": "address"
								}
							],
							"internalType": "struct ArgaLibrary.Collateral",
							"name": "collateral",
							"type": "tuple"
						},
						{
							"internalType": "string",
							"name": "proof",
							"type": "string"
						},
						{
							"internalType": "uint64",
							"name": "drawId",
							"type": "uint64"
						}
					],
					"internalType": "struct ArgaLibrary.Declaration",
					"name": "",
					"type": "tuple"
				}
			],
			"stateMutability": "view",
			"type": "function"
		},
		{
			"inputs": [
				{
					"internalType": "uint256",
					"name": "id",
					"type": "uint256"
				},
				{
					"internalType": "string",
					"name": "proof",
					"type": "string"
				}
			],
			"name": "submitDeclarationProof",
			"outputs": [
				{
					"components": [
						{
							"internalType": "uint256",
							"name": "id",
							"type": "uint256"
						},
						{
							"internalType": "enum ArgaLibrary.DeclarationStatus",
							"name": "status",
							"type": "uint8"
						},
						{
							"internalType": "string",
							"name": "summary",
							"type": "string"
						},
						{
							"internalType": "string",
							"name": "description",
							"type": "string"
						},
						{
							"internalType": "address",
							"name": "actor",
							"type": "address"
						},
						{
							"internalType": "address",
							"name": "witness",
							"type": "address"
						},
						{
							"internalType": "uint256",
							"name": "startDate",
							"type": "uint256"
						},
						{
							"internalType": "uint256",
							"name": "endDate",
							"type": "uint256"
						},
						{
							"internalType": "uint256",
							"name": "witnessByDate",
							"type": "uint256"
						},
						{
							"components": [
								{
									"internalType": "uint256",
									"name": "value",
									"type": "uint256"
								},
								{
									"internalType": "address",
									"name": "erc20Address",
									"type": "address"
								}
							],
							"internalType": "struct ArgaLibrary.Collateral",
							"name": "collateral",
							"type": "tuple"
						},
						{
							"internalType": "string",
							"name": "proof",
							"type": "string"
						},
						{
							"internalType": "uint64",
							"name": "drawId",
							"type": "uint64"
						}
					],
					"internalType": "struct ArgaLibrary.Declaration",
					"name": "",
					"type": "tuple"
				}
			],
			"stateMutability": "nonpayable",
			"type": "function"
		},
		{
			"inputs": [
				{
					"internalType": "address",
					"name": "witness",
					"type": "address"
				}
			],
			"name": "witnessDeclarations",
			"outputs": [
				{
					"components": [
						{
							"internalType": "uint256",
							"name": "id",
							"type": "uint256"
						},
						{
							"internalType": "enum ArgaLibrary.DeclarationStatus",
							"name": "status",
							"type": "uint8"
						},
						{
							"internalType": "string",
							"name": "summary",
							"type": "string"
						},
						{
							"internalType": "string",
							"name": "description",
							"type": "string"
						},
						{
							"internalType": "address",
							"name": "actor",
							"type": "address"
						},
						{
							"internalType": "address",
							"name": "witness",
							"type": "address"
						},
						{
							"internalType": "uint256",
							"name": "startDate",
							"type": "uint256"
						},
						{
							"internalType": "uint256",
							"name": "endDate",
							"type": "uint256"
						},
						{
							"internalType": "uint256",
							"name": "witnessByDate",
							"type": "uint256"
						},
						{
							"components": [
								{
									"internalType": "uint256",
									"name": "value",
									"type": "uint256"
								},
								{
									"internalType": "address",
									"name": "erc20Address",
									"type": "address"
								}
							],
							"internalType": "struct ArgaLibrary.Collateral",
							"name": "collateral",
							"type": "tuple"
						},
						{
							"internalType": "string",
							"name": "proof",
							"type": "string"
						},
						{
							"internalType": "uint64",
							"name": "drawId",
							"type": "uint64"
						}
					],
					"internalType": "struct ArgaLibrary.Declaration[]",
					"name": "",
					"type": "tuple[]"
				}
			],
			"stateMutability": "view",
			"type": "function"
		}
	],
	"transactionHash": "0x907e5d6d228f4583b0b14aa614b67efe97c2eefa06aa96525868aa699c427a68",
	"args": [],
	"numDeployments": 3,
	"solcInputHash": "d7833f9e271d20be698af6270e80d361",
	"bytecode": "0x608060405234801561001057600080fd5b506131f9806100206000396000f3fe6080604052600436106100765760003560e01c80631bccf5a61461007b5780634d571926146100b15780635834162d146100d15780635abd1b06146100f15780636a5c4c1314610113578063876edba1146101335780639dfa60c6146101535780639fb8c0d814610173578063aff9ecdd14610193575b600080fd5b34801561008757600080fd5b5061009b6100963660046129a2565b6101b3565b6040516100a89190612b48565b60405180910390f35b3480156100bd57600080fd5b5061009b6100cc366004612bac565b6105b9565b3480156100dd57600080fd5b5061009b6100ec366004612bac565b610938565b3480156100fd57600080fd5b5061011161010c366004612bc7565b610cae565b005b34801561011f57600080fd5b5061009b61012e366004612bc7565b611206565b610146610141366004612c8b565b6115af565b6040516100a89190612d2a565b34801561015f57600080fd5b5061011161016e366004612bc7565b61195c565b34801561017f57600080fd5b5061014661018e366004612d3d565b611ded565b34801561019f57600080fd5b506101466101ae366004612d83565b61214e565b606060006101bf612411565b6001600160a01b03851660009081526001820160205260408120805483549394509092610201916101fa9188916101f591612db2565b612435565b600061244d565b90506000816001600160401b0381111561021d5761021d612be9565b60405190808252806020026020018201604052801561025657816020015b610243612872565b81526020019060019003908161023b5790505b508454909150600090819061026d90600190612db2565b90505b838210156105aa57600086600001828154811061028f5761028f612dc5565b90600052602060002090600d020160405180610180016040529081600082015481526020016001820160009054906101000a900460ff1660038111156102d7576102d76129cc565b60038111156102e8576102e86129cc565b81526020016002820180546102fc90612ddb565b80601f016020809104026020016040519081016040528092919081815260200182805461032890612ddb565b80156103755780601f1061034a57610100808354040283529160200191610375565b820191906000526020600020905b81548152906001019060200180831161035857829003601f168201915b5050505050815260200160038201805461038e90612ddb565b80601f01602080910402602001604051908101604052809291908181526020018280546103ba90612ddb565b80156104075780601f106103dc57610100808354040283529160200191610407565b820191906000526020600020905b8154815290600101906020018083116103ea57829003601f168201915b505050918352505060048201546001600160a01b03908116602080840191909152600584015482166040808501919091526006850154606085015260078501546080850152600885015460a0850152805180820190915260098501548152600a8501549092169082015260c0820152600b8201805460e09092019161048b90612ddb565b80601f01602080910402602001604051908101604052809291908181526020018280546104b790612ddb565b80156105045780601f106104d957610100808354040283529160200191610504565b820191906000526020600020905b8154815290600101906020018083116104e757829003601f168201915b5050509183525050600c91909101546001600160401b031660209091015260808101519091506001600160a01b038b81169116148061054e575060808101516001600160a01b0316155b15610582578160000361056157506105aa565b8161056b81612e15565b925050828061057990612e2c565b93505050610270565b8084848151811061059557610595612dc5565b60200260200101819052508160000361056157505b50909450505050505b92915050565b606060006105c5612411565b6001600160a01b038416600090815260018201602052604081208054929350916001600160401b038111156105fc576105fc612be9565b60405190808252806020026020018201604052801561063557816020015b610622612872565b81526020019060019003908161061a5790505b50905060005b825481101561092f578360000183828154811061065a5761065a612dc5565b90600052602060002001548154811061067557610675612dc5565b90600052602060002090600d020160405180610180016040529081600082015481526020016001820160009054906101000a900460ff1660038111156106bd576106bd6129cc565b60038111156106ce576106ce6129cc565b81526020016002820180546106e290612ddb565b80601f016020809104026020016040519081016040528092919081815260200182805461070e90612ddb565b801561075b5780601f106107305761010080835404028352916020019161075b565b820191906000526020600020905b81548152906001019060200180831161073e57829003601f168201915b5050505050815260200160038201805461077490612ddb565b80601f01602080910402602001604051908101604052809291908181526020018280546107a090612ddb565b80156107ed5780601f106107c2576101008083540402835291602001916107ed565b820191906000526020600020905b8154815290600101906020018083116107d057829003601f168201915b505050918352505060048201546001600160a01b03908116602080840191909152600584015482166040808501919091526006850154606085015260078501546080850152600885015460a0850152805180820190915260098501548152600a8501549092169082015260c0820152600b8201805460e09092019161087190612ddb565b80601f016020809104026020016040519081016040528092919081815260200182805461089d90612ddb565b80156108ea5780601f106108bf576101008083540402835291602001916108ea565b820191906000526020600020905b8154815290600101906020018083116108cd57829003601f168201915b5050509183525050600c91909101546001600160401b0316602090910152825183908390811061091c5761091c612dc5565b602090810291909101015260010161063b565b50949350505050565b60606000610944612411565b6001600160a01b038416600090815260028201602052604081208054929350916001600160401b0381111561097b5761097b612be9565b6040519080825280602002602001820160405280156109b457816020015b6109a1612872565b8152602001906001900390816109995790505b50905060005b825481101561092f57836000018382815481106109d9576109d9612dc5565b9060005260206000200154815481106109f4576109f4612dc5565b90600052602060002090600d020160405180610180016040529081600082015481526020016001820160009054906101000a900460ff166003811115610a3c57610a3c6129cc565b6003811115610a4d57610a4d6129cc565b8152602001600282018054610a6190612ddb565b80601f0160208091040260200160405190810160405280929190818152602001828054610a8d90612ddb565b8015610ada5780601f10610aaf57610100808354040283529160200191610ada565b820191906000526020600020905b815481529060010190602001808311610abd57829003601f168201915b50505050508152602001600382018054610af390612ddb565b80601f0160208091040260200160405190810160405280929190818152602001828054610b1f90612ddb565b8015610b6c5780601f10610b4157610100808354040283529160200191610b6c565b820191906000526020600020905b815481529060010190602001808311610b4f57829003601f168201915b505050918352505060048201546001600160a01b03908116602080840191909152600584015482166040808501919091526006850154606085015260078501546080850152600885015460a0850152805180820190915260098501548152600a8501549092169082015260c0820152600b8201805460e090920191610bf090612ddb565b80601f0160208091040260200160405190810160405280929190818152602001828054610c1c90612ddb565b8015610c695780601f10610c3e57610100808354040283529160200191610c69565b820191906000526020600020905b815481529060010190602001808311610c4c57829003601f168201915b5050509183525050600c91909101546001600160401b03166020909101528251839083908110610c9b57610c9b612dc5565b60209081029190910101526001016109ba565b6000610cb8612411565b90506000610cc461245c565b90506000610cd0612480565b90506000836000018681548110610ce957610ce9612dc5565b60009182526020909120600d9091020160058101549091506001600160a01b03163314610d345733604051631ee0829160e31b8152600401610d2b9190612e45565b60405180910390fd5b60018082015460ff166003811115610d4e57610d4e6129cc565b14610d955760405162461bcd60e51b81526020600482015260176024820152761c1c9bdbd9881b9bdd081cdd589b5a5d1d1959081e595d604a1b6044820152606401610d2b565b42816008015411610de55760405162461bcd60e51b815260206004820152601a6024820152791dda5d1b995cdcc8189e4819185d19481a185cc81c185cdcd95960321b6044820152606401610d2b565b60018101805460ff191660021790556040516000805160206131a483398151915290610e12908390612ee2565b60405180910390a16000606483600101548360090160000154610e359190612ff6565b610e3f919061300d565b90506000606484600201548460090160000154610e5c9190612ff6565b610e66919061300d565b9050600081838560090160000154610e7e9190612db2565b610e889190612db2565b85546001600160a01b03908116600090815260208981526040918290208251808401909352878352600a89015490931690820152919250610ec8916124a4565b60058401546001600160a01b03908116600090815260208881526040918290208251808401909352868352600a88015490931690820152610f0991906124a4565b60048401546001600160a01b03908116600090815260208881526040918290208251808401909352848352600a88015490931690820152610f4a91906124a4565b6040805161018081019091528454815260018501546000916111d7918790602083019060ff166003811115610f8157610f816129cc565b6003811115610f9257610f926129cc565b8152602001600282018054610fa690612ddb565b80601f0160208091040260200160405190810160405280929190818152602001828054610fd290612ddb565b801561101f5780601f10610ff45761010080835404028352916020019161101f565b820191906000526020600020905b81548152906001019060200180831161100257829003601f168201915b5050505050815260200160038201805461103890612ddb565b80601f016020809104026020016040519081016040528092919081815260200182805461106490612ddb565b80156110b15780601f10611086576101008083540402835291602001916110b1565b820191906000526020600020905b81548152906001019060200180831161109457829003601f168201915b505050918352505060048201546001600160a01b03908116602080840191909152600584015482166040808501919091526006850154606085015260078501546080850152600885015460a0850152805180820190915260098501548152600a8501549092169082015260c0820152600b8201805460e09092019161113590612ddb565b80601f016020809104026020016040519081016040528092919081815260200182805461116190612ddb565b80156111ae5780601f10611183576101008083540402835291602001916111ae565b820191906000526020600020905b81548152906001019060200180831161119157829003601f168201915b5050509183525050600c91909101546001600160401b031660209091015260018801548b612571565b600c9590950180546001600160401b0319166001600160401b0390961695909517909455505050505050505050565b60606000611212612411565b905060006112208486612ff6565b9050600061122f856001612ff6565b611239908761302f565b90506000856001600160401b0381111561125557611255612be9565b60405190808252806020026020018201604052801561128e57816020015b61127b612872565b8152602001906001900390816112735790505b509050825b828110156115a45784546000908690839081106112b2576112b2612dc5565b600091825260209091206004600d9092020101546001600160a01b03161461159c578460000181815481106112e9576112e9612dc5565b90600052602060002090600d020160405180610180016040529081600082015481526020016001820160009054906101000a900460ff166003811115611331576113316129cc565b6003811115611342576113426129cc565b815260200160028201805461135690612ddb565b80601f016020809104026020016040519081016040528092919081815260200182805461138290612ddb565b80156113cf5780601f106113a4576101008083540402835291602001916113cf565b820191906000526020600020905b8154815290600101906020018083116113b257829003601f168201915b505050505081526020016003820180546113e890612ddb565b80601f016020809104026020016040519081016040528092919081815260200182805461141490612ddb565b80156114615780601f1061143657610100808354040283529160200191611461565b820191906000526020600020905b81548152906001019060200180831161144457829003601f168201915b505050918352505060048201546001600160a01b03908116602080840191909152600584015482166040808501919091526006850154606085015260078501546080850152600885015460a0850152805180820190915260098501548152600a8501549092169082015260c0820152600b8201805460e0909201916114e590612ddb565b80601f016020809104026020016040519081016040528092919081815260200182805461151190612ddb565b801561155e5780601f106115335761010080835404028352916020019161155e565b820191906000526020600020905b81548152906001019060200180831161154157829003601f168201915b5050509183525050600c91909101546001600160401b0316602090910152825183908390811061159057611590612dc5565b60200260200101819052505b600101611293565b509695505050505050565b6115b7612872565b6001600160a01b0385166115e05784604051631ee0829160e31b8152600401610d2b9190612e45565b6001600160a01b0386166116095785604051635b48bfd160e11b8152600401610d2b9190612e45565b6001600160a01b03861661165f5760405162461bcd60e51b815260206004820181905260248201527f63616e277420757365207a65726f206164647265737320666f72206163746f726044820152606401610d2b565b838310156116af5760405162461bcd60e51b815260206004820152601f60248201527f656e6444617465206d75737420626520616674657220737461727444617465006044820152606401610d2b565b8282101561170b5760405162461bcd60e51b815260206004820152602360248201527f7769746e657373427944617465206d75737420626520616674657220656e644460448201526261746560e81b6064820152608401610d2b565b6000611715612411565b80546040805161018081018252828152600060208083018290528284018f9052606083018e90526001600160a01b03808e1660808501528c1660a084015260c083018b905260e083018a905261010083018990528351808501855234815280820183905261012084015283519081018452818152610140830152610160820152905192935090917f773d144b4695b99315068c7b47bc63ae0927d765234ab0a8c9731d53471e0543906117c9908390612d2a565b60405180910390a182546001818101855560008581526020908190208451600d90940201928355830151828201805485949360ff1990911690836003811115611814576118146129cc565b02179055506040820151600282019061182d9082613092565b50606082015160038201906118429082613092565b5060808201516004820180546001600160a01b039283166001600160a01b03199182161790915560a084015160058401805491841691831691909117905560c0840151600684015560e0840151600784015561010084015160088401556101208401518051600985015560200151600a84018054919093169116179055610140820151600b8201906118d49082613092565b506101609190910151600c90910180546001600160401b0319166001600160401b039092169190911790556001600160a01b03988916600090815260018481016020908152604080842080548085018255908552828520018690559a909b16825260029094018a52978820805493840181558852979096200194909455509295945050505050565b6000611966612411565b9050600061197261245c565b9050600061197e612480565b9050600061198a6127c9565b905060008460000187815481106119a3576119a3612dc5565b60009182526020909120600d9091020160058101549091506001600160a01b031633146119e55733604051631ee0829160e31b8152600401610d2b9190612e45565b60018101805460ff191660031790556040516000805160206131a483398151915290611a12908390612ee2565b60405180910390a1604080516101808101909152815481526001820154600091611ca7918490602083019060ff166003811115611a5157611a516129cc565b6003811115611a6257611a626129cc565b8152602001600282018054611a7690612ddb565b80601f0160208091040260200160405190810160405280929190818152602001828054611aa290612ddb565b8015611aef5780601f10611ac457610100808354040283529160200191611aef565b820191906000526020600020905b815481529060010190602001808311611ad257829003601f168201915b50505050508152602001600382018054611b0890612ddb565b80601f0160208091040260200160405190810160405280929190818152602001828054611b3490612ddb565b8015611b815780601f10611b5657610100808354040283529160200191611b81565b820191906000526020600020905b815481529060010190602001808311611b6457829003601f168201915b505050918352505060048201546001600160a01b03908116602080840191909152600584015482166040808501919091526006850154606085015260078501546080850152600885015460a0850152805180820190915260098501548152600a8501549092169082015260c0820152600b8201805460e090920191611c0590612ddb565b80601f0160208091040260200160405190810160405280929190818152602001828054611c3190612ddb565b8015611c7e5780601f10611c5357610100808354040283529160200191611c7e565b820191906000526020600020905b815481529060010190602001808311611c6157829003601f168201915b5050509183525050600c91909101546001600160401b0316602090910152600186015489612571565b600c830180546001600160401b0319166001600160401b03831617905560018501546009840154919250600091606491611ce091612ff6565b611cea919061300d565b90506000606486600201548560090160000154611d079190612ff6565b611d11919061300d565b9050600081838660090160000154611d299190612db2565b611d339190612db2565b60408051808201909152818152600a8701546001600160a01b03166020820152909150611d619087906124a4565b86546001600160a01b03908116600090815260208a81526040918290208251808401909352868352600a89015490931690820152611d9f91906124a4565b60058501546001600160a01b03908116600090815260208a81526040918290208251808401909352868352600a89015490931690820152611de091906124a4565b5050505050505050505050565b611df5612872565b6000611dff612411565b90506000816000018581548110611e1857611e18612dc5565b60009182526020909120600d9091020160048101549091506001600160a01b03163314611e855760405162461bcd60e51b815260206004820152601b60248201527a37b7363c9030b1ba37b91031b0b71039bab136b4ba10383937b7b360291b6044820152606401610d2b565b600b8101611e938582613092565b506001818101805460ff191690911790556040516000805160206131a483398151915290611ec2908390612ee2565b60405180910390a16040805161018081019091528154815260018201548290602083019060ff166003811115611efa57611efa6129cc565b6003811115611f0b57611f0b6129cc565b8152602001600282018054611f1f90612ddb565b80601f0160208091040260200160405190810160405280929190818152602001828054611f4b90612ddb565b8015611f985780601f10611f6d57610100808354040283529160200191611f98565b820191906000526020600020905b815481529060010190602001808311611f7b57829003601f168201915b50505050508152602001600382018054611fb190612ddb565b80601f0160208091040260200160405190810160405280929190818152602001828054611fdd90612ddb565b801561202a5780601f10611fff5761010080835404028352916020019161202a565b820191906000526020600020905b81548152906001019060200180831161200d57829003601f168201915b505050918352505060048201546001600160a01b03908116602080840191909152600584015482166040808501919091526006850154606085015260078501546080850152600885015460a0850152805180820190915260098501548152600a8501549092169082015260c0820152600b8201805460e0909201916120ae90612ddb565b80601f01602080910402602001604051908101604052809291908181526020018280546120da90612ddb565b80156121275780601f106120fc57610100808354040283529160200191612127565b820191906000526020600020905b81548152906001019060200180831161210a57829003601f168201915b5050509183525050600c91909101546001600160401b031660209091015295945050505050565b612156612872565b6000612160612411565b905080600001838154811061217757612177612dc5565b90600052602060002090600d020160405180610180016040529081600082015481526020016001820160009054906101000a900460ff1660038111156121bf576121bf6129cc565b60038111156121d0576121d06129cc565b81526020016002820180546121e490612ddb565b80601f016020809104026020016040519081016040528092919081815260200182805461221090612ddb565b801561225d5780601f106122325761010080835404028352916020019161225d565b820191906000526020600020905b81548152906001019060200180831161224057829003601f168201915b5050505050815260200160038201805461227690612ddb565b80601f01602080910402602001604051908101604052809291908181526020018280546122a290612ddb565b80156122ef5780601f106122c4576101008083540402835291602001916122ef565b820191906000526020600020905b8154815290600101906020018083116122d257829003601f168201915b505050918352505060048201546001600160a01b03908116602080840191909152600584015482166040808501919091526006850154606085015260078501546080850152600885015460a0850152805180820190915260098501548152600a8501549092169082015260c0820152600b8201805460e09092019161237390612ddb565b80601f016020809104026020016040519081016040528092919081815260200182805461239f90612ddb565b80156123ec5780601f106123c1576101008083540402835291602001916123ec565b820191906000526020600020905b8154815290600101906020018083116123cf57829003601f168201915b5050509183525050600c91909101546001600160401b03166020909101529392505050565b7f1acbe974883c55f225078acf5d935d6979fbdbfb554c0ddb53d9ca17a6ab711790565b60008183106124445781612446565b825b9392505050565b60008183116124445781612446565b7f5cfbc78b041cdae0090d292526e854c4bb5a42efb3400aba4723c6dcaccaabe190565b7f907d19155bd9377436326dc9bd9b43cca52708d4f6bf5b79c72bc81d628c705c90565b60005b825481101561252b5760008382815481106124c4576124c4612dc5565b9060005260206000209060020201905082602001516001600160a01b03168160010160009054906101000a90046001600160a01b03166001600160a01b03161461250e5750612523565b8251815461251c919061302f565b9055505050565b6001016124a7565b50815460018082018455600093845260209384902083516002909302019182559190920151910180546001600160a01b0319166001600160a01b03909216919091179055565b60008061257c6127c9565b8054909150600003612592576000915050612446565b6004808201546002830154604051631711922960e31b81526000936001600160a01b039384169363b88c9148936125cc9391169101612e45565b602060405180830381865afa1580156125e9573d6000803e3d6000fd5b505050506040513d601f19601f8201168201806040525081019061260d9190613151565b6001600160801b03169050600061262261245c565b9050600061262e612480565b6040805180820182528581526000602080830182905284546001600160a01b03168252869052919091209192509061266690826127ed565b60048581015460028701546040516319cb825f60e01b81526001600160a01b0391821693810193909352602483018a90526000929116906319cb825f90879060440160206040518083038185885af11580156126c6573d6000803e3d6000fd5b50505050506040513d601f19601f820116820180604052508101906126eb919061317a565b9050600086600101548a8860000160008154811061270b5761270b612dc5565b60009182526020909120600290910201546101208e01515161272d919061300d565b6127379190612ff6565b6127419190612ff6565b6001600160401b038316600090815260058901602052604090208c5181556002810182905588549192509061277c9060018301908a906128e3565b506040516001600160401b03841681527fc050c9b02b366fbedbd23e1752e45815b452bdaeb5c40e03376278000bdb76cb9060200160405180910390a150909a9950505050505050505050565b7f57b54c9a1067e6ab879c66c176c4e86e41fe1dcf5187b31dc2b93365087c7afb90565b60005b825481101561286d57600083828154811061280d5761280d612dc5565b9060005260206000209060020201905082602001516001600160a01b03168160010160009054906101000a90046001600160a01b03166001600160a01b0316146128575750612865565b8251815461251c9190612db2565b6001016127f0565b505050565b6040805161018081018252600080825260208083018290526060838501819052808401526080830182905260a0830182905260c0830182905260e083018290526101008301829052835180850190945281845283015290610120820190815260606020820152600060409091015290565b82805482825590600052602060002090600202810192821561294f5760005260206000209160020282015b8281111561294f578254825560018084015490830180546001600160a01b0319166001600160a01b039092169190911790556002928301929091019061290e565b5061295b92915061295f565b5090565b5b8082111561295b57600081556001810180546001600160a01b0319169055600201612960565b80356001600160a01b038116811461299d57600080fd5b919050565b600080604083850312156129b557600080fd5b6129be83612986565b946020939093013593505050565b634e487b7160e01b600052602160045260246000fd5b60048110612a0057634e487b7160e01b600052602160045260246000fd5b9052565b6000815180845260005b81811015612a2a57602081850181015186830182015201612a0e565b506000602082860101526020601f19601f83011685010191505092915050565b6001600160a01b03169052565b60006101a0825184526020830151612a7260208601826129e2565b506040830151816040860152612a8a82860182612a04565b91505060608301518482036060860152612aa48282612a04565b9150506080830151612ab96080860182612a4a565b5060a0830151612acc60a0860182612a4a565b5060c0838101519085015260e0808401519085015261010080840151908501526101208084015180518287015260208101516001600160a01b0316610140870152505061014083015161016085830381870152612b298383612a04565b9401516001600160401b03166101809590950194909452509092915050565b600060208083016020845280855180835260408601915060408160051b87010192506020870160005b82811015612b9f57603f19888603018452612b8d858351612a57565b94509285019290850190600101612b71565b5092979650505050505050565b600060208284031215612bbe57600080fd5b61244682612986565b60008060408385031215612bda57600080fd5b50508035926020909101359150565b634e487b7160e01b600052604160045260246000fd5b600082601f830112612c1057600080fd5b81356001600160401b0380821115612c2a57612c2a612be9565b604051601f8301601f19908116603f01168101908282118183101715612c5257612c52612be9565b81604052838152866020858801011115612c6b57600080fd5b836020870160208301376000602085830101528094505050505092915050565b600080600080600080600060e0888a031215612ca657600080fd5b87356001600160401b0380821115612cbd57600080fd5b612cc98b838c01612bff565b985060208a0135915080821115612cdf57600080fd5b50612cec8a828b01612bff565b965050612cfb60408901612986565b9450612d0960608901612986565b9699959850939660808101359560a0820135955060c0909101359350915050565b6020815260006124466020830184612a57565b60008060408385031215612d5057600080fd5b8235915060208301356001600160401b03811115612d6d57600080fd5b612d7985828601612bff565b9150509250929050565b600060208284031215612d9557600080fd5b5035919050565b634e487b7160e01b600052601160045260246000fd5b818103818111156105b3576105b3612d9c565b634e487b7160e01b600052603260045260246000fd5b600181811c90821680612def57607f821691505b602082108103612e0f57634e487b7160e01b600052602260045260246000fd5b50919050565b600081612e2457612e24612d9c565b506000190190565b600060018201612e3e57612e3e612d9c565b5060010190565b6001600160a01b0391909116815260200190565b60008154612e6681612ddb565b808552602060018381168015612e835760018114612e9d57612ecb565b60ff1985168884015283151560051b880183019550612ecb565b866000528260002060005b85811015612ec35781548a8201860152908301908401612ea8565b890184019650505b505050505092915050565b6001600160a01b031690565b60208152815460208201526000612efd600184015460ff1690565b612f0a60408401826129e2565b506101a0806060840152612f256101c0840160028601612e59565b601f1980858303016080860152612f3f8260038801612e59565b9150612f4e6004870154612ed6565b612f5b60a0870182612a4a565b50612f696005870154612ed6565b612f7660c0870182612a4a565b50600686015460e0860152600786015461010086015260088601546101208601526009860154610140860152600a8601546001600160a01b031661016086015284820301610180850152612fcd81600b8701612e59565b9050612fe3600c8601546001600160401b031690565b6001600160401b0381168584015261092f565b80820281158282048414176105b3576105b3612d9c565b60008261302a57634e487b7160e01b600052601260045260246000fd5b500490565b808201808211156105b3576105b3612d9c565b601f82111561286d576000816000526020600020601f850160051c8101602086101561306b5750805b601f850160051c820191505b8181101561308a57828155600101613077565b505050505050565b81516001600160401b038111156130ab576130ab612be9565b6130bf816130b98454612ddb565b84613042565b602080601f8311600181146130f457600084156130dc5750858301515b600019600386901b1c1916600185901b17855561308a565b600085815260208120601f198616915b8281101561312357888601518255948401946001909101908401613104565b50858210156131415787850151600019600388901b60f8161c191681555b5050505050600190811b01905550565b60006020828403121561316357600080fd5b81516001600160801b038116811461244657600080fd5b60006020828403121561318c57600080fd5b81516001600160401b038116811461244657600080fdfe75b9bf33606a89ce09a48cf11534e610afd767bc18772c928d4eb4d3fdd40072a264697066735822122004c35a6e2b741311014e870df16075fd74dca0c30b42181e96943b599cab0d1264736f6c63430008160033",
	"devdoc": {
		"kind": "dev",
		"methods": {},
		"version": 1
	},
	"userdoc": {
		"kind": "user",
		"methods": {},
		"version": 1
	},
	"storageLayout": {
		"storage": [],
		"types": null
	}
}