{
	"address": "0xc8539eaC81dFF9a88EB9A1facD1a4fB3ff08bE93",
	"abi": [
		{
			"inputs": [
				{
					"internalType": "bytes4",
					"name": "_functionSelector",
					"type": "bytes4"
				}
			],
			"name": "facetAddress",
			"outputs": [
				{
					"internalType": "address",
					"name": "facetAddress_",
					"type": "address"
				}
			],
			"stateMutability": "view",
			"type": "function"
		},
		{
			"inputs": [],
			"name": "facetAddresses",
			"outputs": [
				{
					"internalType": "address[]",
					"name": "facetAddresses_",
					"type": "address[]"
				}
			],
			"stateMutability": "view",
			"type": "function"
		},
		{
			"inputs": [
				{
					"internalType": "address",
					"name": "_facet",
					"type": "address"
				}
			],
			"name": "facetFunctionSelectors",
			"outputs": [
				{
					"internalType": "bytes4[]",
					"name": "_facetFunctionSelectors",
					"type": "bytes4[]"
				}
			],
			"stateMutability": "view",
			"type": "function"
		},
		{
			"inputs": [],
			"name": "facets",
			"outputs": [
				{
					"components": [
						{
							"internalType": "address",
							"name": "facetAddress",
							"type": "address"
						},
						{
							"internalType": "bytes4[]",
							"name": "functionSelectors",
							"type": "bytes4[]"
						}
					],
					"internalType": "struct IDiamondLoupe.Facet[]",
					"name": "facets_",
					"type": "tuple[]"
				}
			],
			"stateMutability": "view",
			"type": "function"
		},
		{
			"inputs": [
				{
					"internalType": "bytes4",
					"name": "_interfaceId",
					"type": "bytes4"
				}
			],
			"name": "supportsInterface",
			"outputs": [
				{
					"internalType": "bool",
					"name": "",
					"type": "bool"
				}
			],
			"stateMutability": "view",
			"type": "function"
		}
	],
	"transactionHash": "0xfaca61291562c65611ad02681d760d1df11407df565a1e45903c6cfaed071571",
	"args": [],
	"numDeployments": 1,
	"solcInputHash": "2ccc6644f36fe7c7b6b0f443317deda8",
	"bytecode": "0x608060405234801561001057600080fd5b50610a8c806100206000396000f3fe608060405234801561001057600080fd5b50600436106100575760003560e01c806301ffc9a71461005c57806352ef6b2c146100845780637a0ed62714610099578063adfca15e146100ae578063cdffacc6146100ce575b600080fd5b61006f61006a36600461085b565b6100f9565b60405190151581526020015b60405180910390f35b61008c61012a565b60405161007b919061088c565b6100a16102b8565b60405161007b919061091f565b6100c16100bc36600461099e565b6106c3565b60405161007b91906109c7565b6100e16100dc36600461085b565b610808565b6040516001600160a01b03909116815260200161007b565b600080610104610837565b6001600160e01b0319909316600090815260039093016020525050604090205460ff1690565b60606000610136610837565b600281015490915061ffff166001600160401b03811115610159576101596109da565b604051908082528060200260200182016040528015610182578160200160208202803683370190505b50915060008060005b600284015461ffff168210156102b0576000818152600185016020526040812054905b600881101561029b57836101c181610a06565b600288015490955061ffff168511905061029b57600581901b82901b6001600160e01b0319811660009081526020889052604081205460601c90805b88811015610248578a818151811061021757610217610a1f565b60200260200101516001600160a01b0316836001600160a01b0316036102405760019150610248565b6001016101fd565b50801561025757505050610293565b818a898151811061026a5761026a610a1f565b6001600160a01b03909216602092830291909101909101528761028c81610a06565b9850505050505b6001016101ae565b505080806102a890610a06565b91505061018b565b505082525090565b606060006102c4610837565b600281015490915061ffff166001600160401b038111156102e7576102e76109da565b60405190808252806020026020018201604052801561032d57816020015b6040805180820190915260008152606060208201528152602001906001900390816103055790505b50600282015490925060009061ffff166001600160401b03811115610354576103546109da565b60405190808252806020026020018201604052801561037d578160200160208202803683370190505b50905060008060005b600285015461ffff1682101561065b576000818152600186016020526040812054905b600881101561064657836103bc81610a06565b600289015490955061ffff168511905061064657600581901b82901b6001600160e01b0319811660009081526020899052604081205460601c90805b8881101561050e57826001600160a01b03168c828151811061041c5761041c610a1f565b6020026020010151600001516001600160a01b03160361050657838c828151811061044957610449610a1f565b6020026020010151602001518b838151811061046757610467610a1f565b602002602001015161ffff168151811061048357610483610a1f565b60200260200101906001600160e01b03191690816001600160e01b0319168152505060ff8a82815181106104b9576104b9610a1f565b602002602001015161ffff16106104cf57600080fd5b8981815181106104e1576104e1610a1f565b6020026020010180518091906104f690610a35565b61ffff169052506001915061050e565b6001016103f8565b50801561051d5750505061063e565b818b898151811061053057610530610a1f565b60209081029190910101516001600160a01b03909116905260028a015461ffff166001600160401b03811115610568576105686109da565b604051908082528060200260200182016040528015610591578160200160208202803683370190505b508b89815181106105a4576105a4610a1f565b602002602001015160200181905250828b89815181106105c6576105c6610a1f565b6020026020010151602001516000815181106105e4576105e4610a1f565b60200260200101906001600160e01b03191690816001600160e01b03191681525050600189898151811061061a5761061a610a1f565b61ffff909216602092830291909101909101528761063781610a06565b9850505050505b6001016103a9565b5050808061065390610a06565b915050610386565b5060005b828110156106b857600084828151811061067b5761067b610a1f565b602002602001015161ffff169050600087838151811061069d5761069d610a1f565b6020908102919091018101510151919091525060010161065f565b508185525050505090565b606060006106cf610837565b600281015490915060009061ffff166001600160401b038111156106f5576106f56109da565b60405190808252806020026020018201604052801561071e578160200160208202803683370190505b5092506000805b600284015461ffff168210156107fe576000818152600185016020526040812054905b60088110156107e9578361075b81610a06565b600288015490955061ffff16851190506107e957600581901b82901b6001600160e01b0319811660009081526020889052604090205460601c6001600160a01b038a168190036107df57818988815181106107b8576107b8610a1f565b6001600160e01b031990921660209283029190910190910152866107db81610a06565b9750505b5050600101610748565b505080806107f690610a06565b915050610725565b5050825250919050565b600080610813610837565b6001600160e01b031990931660009081526020939093525050604090205460601c90565b7fc8fcad8db84d3cc18b4c41d551ea0ee66dd599cde068d998e57d5e09332c131c90565b60006020828403121561086d57600080fd5b81356001600160e01b03198116811461088557600080fd5b9392505050565b6020808252825182820181905260009190848201906040850190845b818110156108cd5783516001600160a01b0316835292840192918401916001016108a8565b50909695505050505050565b60008151808452602080850194506020840160005b838110156109145781516001600160e01b031916875295820195908201906001016108ee565b509495945050505050565b600060208083018184528085518083526040925060408601915060408160051b87010184880160005b8381101561099057888303603f19018552815180516001600160a01b0316845287015187840187905261097d878501826108d9565b9588019593505090860190600101610948565b509098975050505050505050565b6000602082840312156109b057600080fd5b81356001600160a01b038116811461088557600080fd5b60208152600061088560208301846108d9565b634e487b7160e01b600052604160045260246000fd5b634e487b7160e01b600052601160045260246000fd5b600060018201610a1857610a186109f0565b5060010190565b634e487b7160e01b600052603260045260246000fd5b600061ffff808316818103610a4c57610a4c6109f0565b600101939250505056fea264697066735822122078435cab12f092651bb9fa964a82ce2fb845d3b0405bb6df12d0aa554658437f64736f6c63430008160033",
	"devdoc": {
		"kind": "dev",
		"methods": {
			"facetAddress(bytes4)": {
				"details": "If facet is not found return address(0).",
				"params": {
					"_functionSelector": "The function selector."
				},
				"returns": {
					"facetAddress_": "The facet address."
				}
			},
			"facetAddresses()": {
				"returns": {
					"facetAddresses_": "facetAddresses_"
				}
			},
			"facetFunctionSelectors(address)": {
				"params": {
					"_facet": "The facet address."
				},
				"returns": {
					"_facetFunctionSelectors": "The selectors associated with a facet address."
				}
			},
			"facets()": {
				"returns": {
					"facets_": "Facet"
				}
			}
		},
		"version": 1
	},
	"userdoc": {
		"kind": "user",
		"methods": {
			"facetAddress(bytes4)": {
				"notice": "Gets the facet that supports the given selector."
			},
			"facetAddresses()": {
				"notice": "Get all the facet addresses used by a diamond."
			},
			"facetFunctionSelectors(address)": {
				"notice": "Gets all the function selectors supported by a specific facet."
			},
			"facets()": {
				"notice": "Gets all facets and their selectors."
			}
		},
		"version": 1
	},
	"storageLayout": {
		"storage": [],
		"types": null
	}
}