{
	"address": "0x2CC0D39929F29b2f9ad5F14F73D1d30b38bdf13f",
	"abi": [
		{
			"inputs": [
				{
					"internalType": "address",
					"name": "_invalidAddress",
					"type": "address"
				}
			],
			"name": "OwnableUnauthorizedAccount",
			"type": "error"
		},
		{
			"inputs": [],
			"name": "ZeroAddress",
			"type": "error"
		},
		{
			"anonymous": false,
			"inputs": [
				{
					"indexed": false,
					"internalType": "address",
					"name": "treasurer",
					"type": "address"
				}
			],
			"name": "TreasurerChanged",
			"type": "event"
		},
		{
			"inputs": [
				{
					"internalType": "address",
					"name": "newTreasurer",
					"type": "address"
				}
			],
			"name": "changeTreasurer",
			"outputs": [],
			"stateMutability": "nonpayable",
			"type": "function"
		},
		{
			"inputs": [],
			"name": "treasurer",
			"outputs": [
				{
					"internalType": "address",
					"name": "_treasurer",
					"type": "address"
				}
			],
			"stateMutability": "view",
			"type": "function"
		}
	],
	"transactionHash": "0xaca02328ad7bb7a8136731f610f649fc3cb9f207a10772c05f0b36992021296c",
	"args": [],
	"numDeployments": 5,
	"solcInputHash": "0bfa3848c55f8a65b05c3c5777ad351a",
	"bytecode": "0x608060405234801561001057600080fd5b50610212806100206000396000f3fe608060405234801561001057600080fd5b50600436106100365760003560e01c8063cca87bc81461003b578063fda49eb414610050575b600080fd5b61004e610049366004610198565b61006e565b005b6100586100ff565b60405161006591906101c8565b60405180910390f35b6001600160a01b0381166100955760405163d92e233d60e01b815260040160405180910390fd5b61009d61011a565b60006100a7610174565b80546001600160a01b0319166001600160a01b0384161781556040519091507f15617bac281e237e76f65c89de2c478807e7e8384df20d7b7912d532268a259d906100f39084906101c8565b60405180910390a15050565b60008061010a610174565b546001600160a01b031692915050565b7fc8fcad8db84d3cc18b4c41d551ea0ee66dd599cde068d998e57d5e09332c131c600401546001600160a01b03163314610172573360405163118cdaa760e01b815260040161016991906101c8565b60405180910390fd5b565b7f907d19155bd9377436326dc9bd9b43cca52708d4f6bf5b79c72bc81d628c705c90565b6000602082840312156101aa57600080fd5b81356001600160a01b03811681146101c157600080fd5b9392505050565b6001600160a01b039190911681526020019056fea26469706673582212204117fdc428d5295641bb9fe17b2f19e7611346b8b9a0e83d40f58d94e6a9c5c164736f6c63430008160033",
	"devdoc": {
		"kind": "dev",
		"methods": {},
		"version": 1
	},
	"userdoc": {
		"kind": "user",
		"methods": {},
		"version": 1
	},
	"storageLayout": {
		"storage": [],
		"types": null
	}
}